{
  "contractName": "Wallet",
  "abi": [
    {
      "inputs": [
        {
          "internalType": "address[]",
          "name": "_owners",
          "type": "address[]"
        },
        {
          "internalType": "uint256",
          "name": "_approvalsrequired",
          "type": "uint256"
        }
      ],
      "stateMutability": "nonpayable",
      "type": "constructor"
    },
    {
      "inputs": [
        {
          "internalType": "uint256",
          "name": "",
          "type": "uint256"
        }
      ],
      "name": "owner",
      "outputs": [
        {
          "internalType": "address",
          "name": "",
          "type": "address"
        }
      ],
      "stateMutability": "view",
      "type": "function",
      "constant": true
    },
    {
      "inputs": [
        {
          "internalType": "address",
          "name": "_newUserAddress",
          "type": "address"
        }
      ],
      "name": "addUser",
      "outputs": [],
      "stateMutability": "nonpayable",
      "type": "function"
    },
    {
      "inputs": [
        {
          "internalType": "address",
          "name": "recipient",
          "type": "address"
        },
        {
          "internalType": "uint256",
          "name": "amount",
          "type": "uint256"
        }
      ],
      "name": "requestTx",
      "outputs": [],
      "stateMutability": "nonpayable",
      "type": "function"
    },
    {
      "inputs": [
        {
          "internalType": "uint256",
          "name": "_index",
          "type": "uint256"
        }
      ],
      "name": "getTransaction",
      "outputs": [
        {
          "internalType": "uint256",
          "name": "",
          "type": "uint256"
        },
        {
          "internalType": "address",
          "name": "",
          "type": "address"
        },
        {
          "internalType": "address",
          "name": "",
          "type": "address"
        },
        {
          "internalType": "uint256",
          "name": "",
          "type": "uint256"
        },
        {
          "internalType": "uint256",
          "name": "",
          "type": "uint256"
        },
        {
          "internalType": "bool",
          "name": "",
          "type": "bool"
        }
      ],
      "stateMutability": "view",
      "type": "function",
      "constant": true
    },
    {
      "inputs": [
        {
          "internalType": "uint256",
          "name": "txId",
          "type": "uint256"
        }
      ],
      "name": "approveTransaction",
      "outputs": [
        {
          "internalType": "bool",
          "name": "",
          "type": "bool"
        }
      ],
      "stateMutability": "nonpayable",
      "type": "function"
    },
    {
      "inputs": [
        {
          "internalType": "uint256",
          "name": "txId",
          "type": "uint256"
        }
      ],
      "name": "transfer",
      "outputs": [],
      "stateMutability": "nonpayable",
      "type": "function"
    },
    {
      "inputs": [],
      "name": "deposit",
      "outputs": [
        {
          "internalType": "uint256",
          "name": "",
          "type": "uint256"
        }
      ],
      "stateMutability": "payable",
      "type": "function",
      "payable": true
    },
    {
      "inputs": [],
      "name": "getBalance",
      "outputs": [
        {
          "internalType": "uint256",
          "name": "",
          "type": "uint256"
        }
      ],
      "stateMutability": "view",
      "type": "function",
      "constant": true
    }
  ],
  "bytecode": "0x60806040523480156200001157600080fd5b506040516200103d3803806200103d833981810160405260408110156200003757600080fd5b81019080805160405193929190846401000000008211156200005857600080fd5b838201915060208201858111156200006f57600080fd5b82518660208202830111640100000000821117156200008d57600080fd5b8083526020830192505050908051906020019060200280838360005b83811015620000c6578082015181840152602081019050620000a9565b50505050905001604052602001805190602001909291905050508160009080519060200190620000f89291906200042f565b50600060016000806000815481106200010d57fe5b9060005260206000200160009054906101000a900473ffffffffffffffffffffffffffffffffffffffff1673ffffffffffffffffffffffffffffffffffffffff1673ffffffffffffffffffffffffffffffffffffffff16815260200190815260200160002081905550600060016000806001815481106200018a57fe5b9060005260206000200160009054906101000a900473ffffffffffffffffffffffffffffffffffffffff1673ffffffffffffffffffffffffffffffffffffffff1673ffffffffffffffffffffffffffffffffffffffff16815260200190815260200160002081905550600060016000806002815481106200020757fe5b9060005260206000200160009054906101000a900473ffffffffffffffffffffffffffffffffffffffff1673ffffffffffffffffffffffffffffffffffffffff1673ffffffffffffffffffffffffffffffffffffffff16815260200190815260200160002081905550600160026000806000815481106200028457fe5b9060005260206000200160009054906101000a900473ffffffffffffffffffffffffffffffffffffffff1673ffffffffffffffffffffffffffffffffffffffff1673ffffffffffffffffffffffffffffffffffffffff16815260200190815260200160002060006101000a81548160ff021916908315150217905550600160026000806001815481106200031457fe5b9060005260206000200160009054906101000a900473ffffffffffffffffffffffffffffffffffffffff1673ffffffffffffffffffffffffffffffffffffffff1673ffffffffffffffffffffffffffffffffffffffff16815260200190815260200160002060006101000a81548160ff02191690831515021790555060016002600080600281548110620003a457fe5b9060005260206000200160009054906101000a900473ffffffffffffffffffffffffffffffffffffffff1673ffffffffffffffffffffffffffffffffffffffff1673ffffffffffffffffffffffffffffffffffffffff16815260200190815260200160002060006101000a81548160ff021916908315150217905550806003819055505050620004dd565b828054828255906000526020600020908101928215620004ab579160200282015b82811115620004aa5782518260006101000a81548173ffffffffffffffffffffffffffffffffffffffff021916908373ffffffffffffffffffffffffffffffffffffffff1602179055509160200191906001019062000450565b5b509050620004ba9190620004be565b5090565b5b80821115620004d9576000816000905550600101620004bf565b5090565b610b5080620004ed6000396000f3fe60806040526004361061007b5760003560e01c8063421b2d8b1161004e578063421b2d8b146101d75780637dcac6d814610228578063a123c33e14610283578063d0e30db0146102e85761007b565b806312065fe01461008057806312514bba146100ab578063242232d1146100e657806333ea3dc814610137575b600080fd5b34801561008c57600080fd5b50610095610306565b6040518082815260200191505060405180910390f35b3480156100b757600080fd5b506100e4600480360360208110156100ce57600080fd5b810190808035906020019092919050505061034d565b005b3480156100f257600080fd5b5061011f6004803603602081101561010957600080fd5b810190808035906020019092919050505061051b565b60405180821515815260200191505060405180910390f35b34801561014357600080fd5b506101706004803603602081101561015a57600080fd5b8101908080359060200190929190505050610614565b604051808781526020018673ffffffffffffffffffffffffffffffffffffffff1681526020018573ffffffffffffffffffffffffffffffffffffffff1681526020018481526020018381526020018215158152602001965050505050505060405180910390f35b3480156101e357600080fd5b50610226600480360360208110156101fa57600080fd5b81019080803573ffffffffffffffffffffffffffffffffffffffff169060200190929190505050610739565b005b34801561023457600080fd5b506102816004803603604081101561024b57600080fd5b81019080803573ffffffffffffffffffffffffffffffffffffffff169060200190929190803590602001909291905050506107d9565b005b34801561028f57600080fd5b506102bc600480360360208110156102a657600080fd5b8101908080359060200190929190505050610944565b604051808273ffffffffffffffffffffffffffffffffffffffff16815260200191505060405180910390f35b6102f0610983565b6040518082815260200191505060405180910390f35b6000600160003373ffffffffffffffffffffffffffffffffffffffff1673ffffffffffffffffffffffffffffffffffffffff16815260200190815260200160002054905090565b60006004828154811061035c57fe5b906000526020600020906006020160000160009054906101000a900473ffffffffffffffffffffffffffffffffffffffff16905060006004838154811061039f57fe5b906000526020600020906006020160010160009054906101000a900473ffffffffffffffffffffffffffffffffffffffff1690506000600484815481106103e257fe5b906000526020600020906006020160020154905080600160008573ffffffffffffffffffffffffffffffffffffffff1673ffffffffffffffffffffffffffffffffffffffff16815260200190815260200160002054101561044257600080fd5b8173ffffffffffffffffffffffffffffffffffffffff168373ffffffffffffffffffffffffffffffffffffffff16141561047b57600080fd5b6000600160008573ffffffffffffffffffffffffffffffffffffffff1673ffffffffffffffffffffffffffffffffffffffff1681526020019081526020016000205490506104ca848484610a17565b818103600160008673ffffffffffffffffffffffffffffffffffffffff1673ffffffffffffffffffffffffffffffffffffffff168152602001908152602001600020541461051457fe5b5050505050565b600060011515600260003373ffffffffffffffffffffffffffffffffffffffff1673ffffffffffffffffffffffffffffffffffffffff16815260200190815260200160002060009054906101000a900460ff1615151461057a57600080fd5b60016004838154811061058957fe5b906000526020600020906006020160030160008282540192505081905550600354600483815481106105b757fe5b9060005260206000209060060201600301541061060f576001600483815481106105dd57fe5b906000526020600020906006020160040160006101000a81548160ff02191690831515021790555061060e8261034d565b5b919050565b6000806000806000806004878154811061062a57fe5b9060005260206000209060060201600501546004888154811061064957fe5b906000526020600020906006020160000160009054906101000a900473ffffffffffffffffffffffffffffffffffffffff166004898154811061068857fe5b906000526020600020906006020160010160009054906101000a900473ffffffffffffffffffffffffffffffffffffffff1660048a815481106106c757fe5b90600052602060002090600602016002015460048b815481106106e657fe5b90600052602060002090600602016003015460048c8154811061070557fe5b906000526020600020906006020160040160009054906101000a900460ff1695509550955095509550955091939550919395565b6000600160008373ffffffffffffffffffffffffffffffffffffffff1673ffffffffffffffffffffffffffffffffffffffff168152602001908152602001600020819055506001600260008373ffffffffffffffffffffffffffffffffffffffff1673ffffffffffffffffffffffffffffffffffffffff16815260200190815260200160002060006101000a81548160ff02191690831515021790555050565b6107e1610ab6565b6040518060c001604052803373ffffffffffffffffffffffffffffffffffffffff1681526020018473ffffffffffffffffffffffffffffffffffffffff168152602001838152602001600081526020016000151581526020016004805490508152509050600481908060018154018082558091505060019003906000526020600020906006020160009091909190915060008201518160000160006101000a81548173ffffffffffffffffffffffffffffffffffffffff021916908373ffffffffffffffffffffffffffffffffffffffff16021790555060208201518160010160006101000a81548173ffffffffffffffffffffffffffffffffffffffff021916908373ffffffffffffffffffffffffffffffffffffffff160217905550604082015181600201556060820151816003015560808201518160040160006101000a81548160ff02191690831515021790555060a082015181600501555050505050565b6000818154811061095457600080fd5b906000526020600020016000915054906101000a900473ffffffffffffffffffffffffffffffffffffffff1681565b600034600160003373ffffffffffffffffffffffffffffffffffffffff1673ffffffffffffffffffffffffffffffffffffffff16815260200190815260200160002060008282540192505081905550600160003373ffffffffffffffffffffffffffffffffffffffff1673ffffffffffffffffffffffffffffffffffffffff16815260200190815260200160002054905090565b80600160008573ffffffffffffffffffffffffffffffffffffffff1673ffffffffffffffffffffffffffffffffffffffff1681526020019081526020016000206000828254039250508190555080600160008473ffffffffffffffffffffffffffffffffffffffff1673ffffffffffffffffffffffffffffffffffffffff16815260200190815260200160002060008282540192505081905550505050565b6040518060c00160405280600073ffffffffffffffffffffffffffffffffffffffff168152602001600073ffffffffffffffffffffffffffffffffffffffff168152602001600081526020016000815260200160001515815260200160008152509056fea2646970667358221220306c075961bd2e8ef1943d6cc962b2ce1350f9e02607bc8e609323c3a07f03bc64736f6c63430007050033",
  "immutableReferences": {},
  "source": "//pragma solidity 0.7.5;\n//pragma solidity 0.8.0;\npragma solidity >=0.4.22 <0.9.0;\n\n//import \"./Ownable.sol\";\n\ncontract Wallet {\n    address[] public owner;\n    mapping(address => uint) balance;\n    mapping(address => bool) ownerMap;\n    uint approvalThreshold;\n    \n \n    transactionRequest[] transactionQ;\n    \n    struct transactionRequest {\n        address from;\n        address to;\n        uint amount;\n        uint numApprovals;\n        bool    approved;\n        uint txId;\n    }\n\n\n    \n    \n    constructor(address[] memory _owners, uint _approvalsrequired){\n        //set owner addresses, and required number of approvals.\n        owner = _owners;\n        balance[owner[0]] = 0;\n        balance[owner[1]] = 0;\n        balance[owner[2]] = 0;\n        ownerMap[owner[0]] = true;\n        ownerMap[owner[1]] = true;\n        ownerMap[owner[2]] = true;\n        approvalThreshold = _approvalsrequired;\n        \n    }\n    \n    \n    function addUser(address _newUserAddress) public {\n        \n        //this function is used by the contract owner to add addresses (ie other owners) to the \"ownsers\" mapping\n        balance[_newUserAddress] = 0;\n        ownerMap[_newUserAddress] = true;\n        \n    }\n    \n    \n    function requestTx(address recipient, uint amount) public {\n        //this function is used by any owner to create a transaction request and add it to the Transaction Queue\n        \n        \n        /* \n        the function will take the following arguments: to address, amount.Each request will have their approved flag set to false.\n        \n        the function will create a new request object and push it onto the reqest queue. \n    \n        */\n        \n        transactionRequest memory newTx = transactionRequest(msg.sender, recipient, amount, 0, false, transactionQ.length);\n        transactionQ.push(newTx);\n        \n    }\n\n\n    function getTransaction(uint _index) public view returns(uint, address, address, uint, uint, bool) {\n        return (transactionQ[_index].txId, transactionQ[_index].from, transactionQ[_index].to, transactionQ[_index].amount, transactionQ[_index].numApprovals, transactionQ[_index].approved);\n    }\n\n/*\n    function listTxQ() public view {\n        \n        //this function is used by any anyone to show the transaction q \n        //return txID, amount, numberofapprovals, approved\n        for (uint i=0; i<transactionQ.length; i++) {\n            getTransaction(i);\n        }\n        \n        \n    }\n*/\n    function approveTransaction(uint txId) public returns(bool) {\n        //this function is used by ownsers to approve a specific transaction in the Transaction Queue\n        require(ownerMap[msg.sender] == true);\n        /*  \n        this function will accept the following arguments: txId\n        when this is invoked, the function will check whether the caller is in the owners mapping, it will check the account balance, \n        and if there's enough balance, and it will increment the approvalCount for the transaction.\n        If the appvovalCount is greater than or equal to the approvalThreshold, then the transfer function will be invoked\n        */\n        \n        \n        transactionQ[txId].numApprovals += 1;\n        if (transactionQ[txId].numApprovals >= approvalThreshold) {\n            //here we execute the trasfer function\n            transactionQ[txId].approved = true;\n            transfer(txId);\n        }\n \n    }\n\n   function transfer(uint txId) public {\n        //need error handling checks\n        \n        address _from = transactionQ[txId].from;\n        address _to = transactionQ[txId].to;\n        uint _amount = transactionQ[txId].amount;\n        \n        require(balance[_from] >= _amount);\n        require(_from != _to);\n        \n        uint previousSenderBalance = balance[_from];\n\n        _transfer(_from,_to,_amount);\n        \n        \n        //GoverenmentInstance.addTransaction{value: 1 ether}(msg.sender,recipient,amount);\n        //emit tranferAdded(amount, recipient);\n        \n        assert(balance[_from] == previousSenderBalance - _amount);\n        \n        //event logs and further checks\n        \n    \n    }\n    \n    function _transfer(address from, address to, uint amount) private {\n        balance[from] -= amount;\n        balance[to] += amount;\n    }\n   \n\n    function deposit() public payable returns (uint){\n        \n        balance[msg.sender] += msg.value;\n        //emit depositDone(msg.value, msg.sender);\n        return balance[msg.sender];\n    }\n    \n    \n    function getBalance() public view returns(uint) {\n        return balance[msg.sender];\n    }\n}\n\n",
  "sourcePath": "D:/Ethereum-201/wallet/contracts/Wallet.sol",
  "compiler": {
    "name": "solc",
    "version": "0.7.5+commit.eb77ed08.Emscripten.clang"
  },
  "schemaVersion": "3.4.1",
  "updatedAt": "2021-05-14T17:25:10.446Z",
  "networkType": "ethereum",
  "devdoc": {
    "kind": "dev",
    "methods": {},
    "version": 1
  },
  "userdoc": {
    "kind": "user",
    "methods": {},
    "version": 1
  }
}